:100000000C9434000C9446000C9446000C9446006A
:100010000C9446000C9446000C9446000C94460048
:100020000C9446000C9446000C9446000C94460038
:100030000C9446000C9446000C9446000C94460028
:100040000C9446000C9446000C9446000C94460018
:100050000C9446000C9448000C9446000C94460006
:100060000C9446000C94460011241FBECFEFD8E03C
:10007000DEBFCDBF21E0A0E0B1E001C01D92A33002
:10008000B207E1F70E94B7000C94EE000C94000058
:100090001F920F920FB60F9211248F93EF93FF933D
:1000A00080910201882351F084E680937C001092B5
:1000B000020180917900809300010AC080E680935C
:1000C0007C0081E08093020180917900809301019E
:1000D000EAE7F0E0808180648083FF91EF918F9167
:1000E0000F900FBE0F901F9018958FEF80937E009A
:1000F0009EEE97B918B88AB984B9089584E68093BA
:100100007C00EAE7F0E080818F60808378948081D2
:10011000806C8083089583EA84BD84E085BD17BC2C
:1001200018BC089583EA8093B000E1EBF0E0808191
:10013000866080831092B3001092B4000895419AB3
:1001400087BD8FEF88BD0895459A8093B3008FEFE8
:100150008093B4000895419A9FEF97BD88BD08959C
:10016000459A9FEF9093B3008093B40008950E9446
:1001700075000E947E000E948B000E949200DFE0CA
:10018000CFB7F8948091000190E00E949F00809189
:10019000010190E00E94A400CFBFD8B92FE38DE009
:1001A00093E0215080409040E1F700C00000CFB7BD
:1001B000F8948091000190E00E94AB0080910101D1
:1001C00090E00E94B000CFBF2FE38DE093E021507C
:1001D00080409040E1F700C00000D2CFF894FFCFFC
:00000001FF
